:020000040800F2
:1000000000000320E5030008310400083104000863
:100010003104000831040008310400080000000029
:100020000000000000000000000000003104000893
:100030003104000800000000310400083104000809
:1000400031040008310400083104000831040008BC
:1000500031040008310400083104000831040008AC
:10006000310400083104000831040008310400089C
:10007000310400083104000831040008310400088C
:10008000310400083104000831040008310400087C
:10009000310400083104000831040008310400086C
:1000A000310400083104000831040008310400085C
:1000B000310400083104000831040008310400084C
:1000C000310400083104000831040008310400083C
:1000D000310400083104000831040008310400082C
:1000E000310400083104000831040008310400081C
:1000F000310400083104000831040008310400080C
:1001000031040008310400083104000831040008FB
:1001100031040008310400083104000831040008EB
:1001200031040008310400083104000831040008DB
:1001300031040008310400083104000831040008CB
:1001400031040008310400083104000831040008BB
:1001500031040008310400083104000831040008AB
:10016000310400083104000831040008310400089B
:1001700031040008310400083104000800000000C8
:10018000310400083104000831040008310400087B
:10019000310400083104000831040008310400086B
:0C01A0003104000831040008310400089C
:1001AC0010B5054C237833B9044B13B10448AFF3A5
:1001BC0000800123237010BD1400002000000000FB
:1001CC007C04000808B5034B1BB103490348AFF38B
:1001DC00008008BD00000000180000207C0400080E
:1001EC0010B592B05D4CD4F8303843F00403C4F829
:1001FC0030385B4AD2F8003843F48031C2F800182A
:10020C0043F4A023C2F8003800F0BCF800F0D0F89A
:10021C00D4F8303843F01003C4F83038514B0C93F9
:10022C000D9303F580530E930F93A3F54063109336
:10023C001193EC464C4C0FCCACE80F000FCCACE857
:10024C000F0094E80F008CE80F006DE012AA02EB8F
:10025C00830252F8180C0268991D12AC04EB810150
:10026C0051F8481C0A4302600133052BEEDD3F4B6D
:10027C0001221A6063E00023F7E70023052B0FDC53
:10028C0012AA02EB830252F8180C0268991D12ACE8
:10029C0004EB810151F8481C0A4302600133EDE77D
:1002AC00334B01221A6055E012AA02EB830050F87E
:1002BC00181C0A6850F8480C02430A6001332B4A98
:1002CC0012689A42F0DC002200E00132294B1B68D4
:1002DC002749096801FB03F32749096801FB03F36C
:1002EC009342F2DC00230EE012AA02EB830252F8D6
:1002FC00180C0268991D12AC04EB810151F8481CD2
:10030C000A4302600133194A12689A42ECDC00225B
:10031C00184B1B681649096801FB03F31749096858
:10032C0001FB03F3934217DC154B1B6913F0100F01
:10033C0005D00E4A136801331360062B9BDC104B5F
:10034C001B6913F0200F05D0094A136801331360A1
:10035C00032B92DC0023B2E70132D9E700300240D4
:10036C000000024018080240940400080C00002011
:10037C0010000020080000200400002000000020D5
:10038C0000100240094AD2F8303843F04003C2F85A
:10039C003038A2F50052D2F8003843F01001C2F800
:1003AC00001843F05003C2F8003870470030024088
:1003BC00074A136B43F008031363064B1A6842F4A5
:1003CC0080521A601A6842F480421A60704700BF6B
:1003DC0000380240000C0240DFF830D00C480D49C8
:1003EC000D4A002302E0D458C4500433C4188C4284
:1003FC00F9D30A4A0A4C002301E013600432A242EA
:10040C00FBD300F011F8FFF7EBFE70470000032060
:10041C000000002014000020CC0400081400002070
:10042C0030000020FEE7000070B50D4D0D4C641B34
:10043C00A4100026A64209D10B4D0C4C00F018F864
:10044C00641BA4100026A64205D170BD55F8043BD0
:10045C0098470136EEE755F8043B98470136F2E72A
:10046C00C4040008C4040008C4040008C80400083C
:10047C00F8B500BFF8BC08BC9E467047F8B500BF85
:08048C00F8BC08BC9E46704755
:100494000001000000020000040000000800000049
:1004A4004000000080000000000000010000000285
:1004B400000004000000080000004000000080006C
:0404C400D10100085A
:0404C800AD0100087A
:1004CC00020000000400000050C300000100000006
:0404DC00010000001B
:04000005080003E507
:00000001FF
